:060000000A128A11FC2F18
:100F62008316031308108312031308108316031346
:100F72000614880183120313880108000A128A11D9
:100F8200B1270A128A11831203130618C92FCA2F16
:100F9200C42F013088060030F7000130F600863099
:100FA200F500A030F4000130F0000030F100003014
:100FB200F2000030F3007008F4027108031C710F94
:100FC200E32FE42FF5027208031C720FE92FEA2FB8
:100FD200F6027308031C730FEF2FF02FF702770846
:100FE200760475047404031DF72FF82FD42FC42F31
:0E0FF2000A128A11002883010A128A11BF2FE9
:02400E00FB3F76
:00000001FF
