:060000000A128A11F62F1E
:100D6A0001340A128A11C2260A128A11831603133F
:100D7A0008128312031308120800831603130608C5
:100D8A00073886000808F039880081138312031394
:100D9A0088150815881408140800F2000A128A1126
:100DAA003B270A128A11F3007208031DDD2EDE2E7C
:100DBA00E02E7308F42E730A0319E42EE52EEC2EA6
:100DCA007D080319E92EEA2EEC2EFD01DE2E730AA8
:100DDA00031DF02EF12EF32EFD01FD0AFF3008004F
:100DEA000A128A11B6260A128A1100300A128A11C8
:100DFA00D2260A128A11F8002A307806031D062F15
:100E0A00072FFA2E10308312031388060030FC00D5
:100E1A000030FB00C330FA005030F9000130F40012
:100E2A000030F5000030F6000030F7007408F902CF
:100E3A007508031C750F222F232FFA027608031C4C
:100E4A00760F282F292FFB027708031C770F2E2FE6
:100E5A002F2FFC027C087B047A047904031D362FA9
:100E6A00372F132FFA2E0A128A110028831203131E
:100E7A0088110815881408146430F0000030F10055
:100E8A00FF30F0070318F10AFF30F107700A031D5B
:100E9A00522F710A031D522F532F452F831203130A
:100EAA000618582F592F5B2F0130F52F86185E2F01
:100EBA005F2F612F0230F52F0619642F652F672FD8
:100ECA000330F52F88150811881408146430F000CF
:100EDA000030F100FF30F0070318F10AFF30F10784
:100EEA007108803AFF0080307F02031D7E2F013097
:100EFA0070020318812F822F6F2F83120313061893
:100F0A00872F882F8A2F0430F52F86188D2F8E2F42
:100F1A00902F0530F52F0619932F942F962F063010
:100F2A00F52F88150815881008146430F000003071
:100F3A00F100FF30F0070318F10AFF30F1077108DA
:100F4A00803AFF0080307F02031DAD2F013070020E
:100F5A000318B02FB12F9E2F831203130618B62F32
:100F6A00B72FB92F0730F52F8618BC2FBD2FBF2FEB
:100F7A000830F52F0619C22FC32FC52F0930F52FB8
:100F8A0088150815881408106430F0000030F10044
:100F9A00FF30F0070318F10AFF30F1077108803AB1
:100FAA00FF0080307F02031DDC2F0130700203181E
:100FBA00DF2FE02FCD2F831203130618E52FE62F1C
:100FCA00E82F2A30F52F8618EB2FEC2FEE2F003062
:100FDA00F52F0619F12FF22FF42F2330F52FFF30BA
:100FEA0008000A128A11B5260A128A11FD00830125
:060FFA000A128A11F52E17
:02400E00FB3F76
:00000001FF
