:060000000A128A110C280F
:10000800FE00030EF2000A08F3000A128A111528EE
:100018000A128A110F28F001F10183010A128A11CC
:1000280050280B1D18281928322883120313010899
:10003800083E81000130F0070318F10A0030F1078B
:1000480010307006273003197106031D2C282D283F
:100058003128F001F101013088060B1173088A007C
:10006800720E8300FE0E7E0E0900831203138801B0
:100078008316031388010A128A1146200A128A116C
:100088008B1708008316031381128115063083121B
:10009800031381008B1608000A128A1139200A12EC
:0A00A8008A1155280A128A110C284B
:08400000FF3FFF3FFF3FFF3FC0
:02400E00FB3F76
:00000001FF
