:060000000A128A110C280F
:10000800FE00030EF2000A08F3000A128A111528EE
:100018000A128A110F28F001F10183010A128A11CC
:100028005128831203138C1C1A281B282F280130EF
:10003800F0070318F10A0030F107E23070060430C7
:1000480003197106031D29282A282E28F001F10119
:10005800013088068C1073088A00720E8300FE0E29
:100068007E0E090083120313880183160313880187
:100078000A128A1144200A128A110B178B170800DA
:100088008312031312149214FA3083160313920086
:100098008C1483120313121508000A128A113620D1
:0C00A8000A128A1156280A128A110C282C
:08400000FF3FFF3FFF3FFF3FC0
:02400E00FB3F76
:00000001FF
