:100000000A128A11FC2F00308A000408840A820731
:10001000003457346F3472346C34643400344834F0
:0A00200065346C346C346F34003426
:100DE0000A128A11F6260A128A11080083160313C2
:100DF0008801091189100A128A1199270A128A1189
:100E00000800F500F00174080A128A1163270A121B
:100E10008A11F001F00A75080A128A1163270A1272
:100E20008A110800F500F00174080A128A1163277C
:100E30000A128A112D2FF001F00A750884000A1297
:100E40008A1103200A128A110A128A1163270A12D0
:100E50008A110130FF007F08F507750884000A1227
:100E60008A1103200A128A11003A031D382F392FE4
:100E70001B2F08000A128A11F0260A128A118430E8
:100E8000F40035300A128A1101270A128A11C4307F
:100E9000F40007300A128A1112270A128A119430BC
:100EA000F40034300A128A1101270A128A11D43050
:100EB000F40001300A128A1112270A128A113F2FF8
:100EC0000A128A110028F3007018672F6B2F831203
:100ED000031309156E2F8312031309117308F039D8
:100EE00088008914A630F100F10B742F00008312E2
:100EF0000313891073080F39F10003300310F10D4B
:100F0000FF3E031D7E2F0310710D88008914A6304B
:100F1000F100F10B892F00008312031389101B309D
:100F2000F2009E30F100F10B932FF20B932F000093
:100F30000800C330F500CD30F400F40B9D2FF50B05
:100F40009D2FF00133300A128A1163270A128A1189
:100F50001B30F5009E30F400F40BAC2FF50BAC2FDA
:100F60000000F00133300A128A1163270A128A1135
:100F7000A630F400F40BBA2F0000F00133300A124F
:100F80008A1163270A128A11C52FC62F0000F001AB
:100F900002300A128A1163270A128A11A630F4005D
:100FA000F40BD02F0000F00128300A128A116327B9
:100FB0000A128A11A630F400F40BDC2F0000F001B5
:100FC00001300A128A1163270A128A110430F500CF
:100FD0003D30F400F40BEA2FF50BEA2FEF2FF00170
:100FE0000C300A128A1163270A128A11A630F40003
:100FF000F40BF82F0000080083010A128A113A2F1F
:08400000FF3FFF3FFF3FFF3FC0
:02400E00FB3F76
:00000001FF
