:100000000A128A11FC2F00308A000408840A820731
:10001000003445346D34623465346434643465349A
:1000200064340034573465346C3463346F346D3465
:100030006534003457346F3472346C3464340034B3
:0C004000483465346C346C346F34003488
:100E4E000A128A112D270A128A110800831603131B
:100E5E008801091189100A128A11A9270A128A110A
:100E6E000800F30070183C2F402F8312031309154E
:100E7E00432F831203130911730888008914A630B7
:100E8E00F100F10B482F00008312031389101B3061
:100E9E00F2009E30F100F10B522FF20B522F000098
:100EAE000800F500F00174080A128A1138270A1298
:100EBE008A11732FF001F00A750884000A128A1144
:100ECE0003200A128A110A128A1138270A128A116D
:100EDE000130FF007F08F507750884000A128A1199
:100EEE0003200A128A11003A031D7E2F7F2F612FD5
:100EFE0008000A128A1127270A128A118030F4007C
:100F0E0018300A128A1158270A128A11C230F400B8
:100F1E0012300A128A1158270A128A119330F400DD
:100F2E000A300A128A1158270A128A11D430F40094
:100F3E0001300A128A1158270A128A11852F0A12B5
:100F4E008A110028C330F500CD30F400F40BAD2F1C
:100F5E00F50BAD2FF00133300A128A1138270A1221
:100F6E008A111B30F5009E30F400F40BBC2FF50BEC
:100F7E00BC2F0000F00133300A128A1138270A12F2
:100F8E008A11A630F400F40BCA2F0000F0013330A2
:100F9E000A128A1138270A128A11D52FD62F00006D
:100FAE00F00130300A128A1138270A128A11A6303F
:100FBE00F400F40BE02F0000F00101300A128A1148
:100FCE0038270A128A11A630F400F40BEC2F000019
:100FDE00F0010C300A128A1138270A128A11A63033
:100FEE00F400F40BF82F0000080083010A128A1196
:020FFE00802F42
:08400000FF3FFF3FFF3FFF3FC0
:02400E00FB3F76
:00000001FF
